:020000040800F2
:100000009006002091080008990600089B06000849
:100010009F060008A3060008A706000800000000CD
:10002000000000000000000000000000AB06000817
:10003000AD06000800000000AF060008A90800088F
:10004000AB080008AB080008AB080008AB080008C4
:10005000AB080008AB080008AB080008AB080008B4
:10006000AB080008AB080008AB080008AB080008A4
:10007000AB080008AB080008AB080008AB08000894
:10008000AB080008AB080008AB080008AB08000884
:10009000AB080008AB080008AB080008AB08000874
:1000A000AB080008AB080008AB080008AB08000864
:1000B000AB080008AB080008AB080008AB08000854
:1000C000AB080008AB080008AB080008AB08000844
:1000D000AB080008091F0008AB080008AB080008BF
:1000E000AB080008AB080008AB08000800F002F8F5
:1000F00000F03AF80AA090E8000C82448344AAF188
:100100000107DA4501D100F02FF8AFF2090EBAE885
:100110000F0013F0010F18BFFB1A43F0010318473B
:100120006C2800008C280000103A24BF78C878C1E1
:10013000FAD8520724BF30C830C144BF04680C60ED
:10014000704700000023002400250026103A28BF35
:1001500078C1FBD8520728BF30C148BF0B60704739
:100160001FB51FBD10B510BD01F009FF1146FFF707
:10017000F7FF00F073FA01F027FF03B4FFF7F2FF77
:1001800003BC01F02FFF000030BF72B662B680F3EF
:100190000888704708B50121102001F001FA1020ED
:1001A0008DF8030003208DF802004FF40050ADF8E5
:1001B00000006946044800F037FF4FF40051024840
:1001C00000F0DFFF08BD00000010014008B501216C
:1001D000082001F0E5F94FF48050ADF8000003204D
:1001E0008DF8020010208DF8030069460D4800F0DC
:1001F0001BFF4FF40050ADF800006946094800F0BD
:1002000013FF4FF48040ADF800006946054800F048
:100210000BFF4FF40040ADF800006946014800F0C4
:1002200003FF08BD000C014070B504460E462EB118
:1002300001229103FE4800F0A8FF05E000224FF4E0
:100240008041FB4800F0A1FF00251DE000224FF493
:100250000051F74800F099FF04F0800028B1012216
:10026000D103F34800F091FF05E000224FF4004174
:10027000EF4800F08AFF01225103ED4800F085FFAE
:100280006006040E681CC5B2082DDFDB0122910355
:10029000E74800F07AFF70BD70B504460D4605F1E1
:1002A000B001C8B20021FFF7BFFF102141EA1410CE
:1002B0000021FFF7B9FF04F00F0141F00100002118
:1002C000FFF7B2FF70BD10B500218D20FFF7ACFF26
:1002D00000211420FFF7A8FF0021AF20FFF7A4FFA3
:1002E00010BD10B500218D20FFF79EFF00211020CA
:1002F000FFF79AFF0021AE20FFF796FF10BD70B503
:10030000002419E004F1B001C8B20021FFF78CFF0E
:1003100000210220FFF788FF00211020FFF784FF53
:10032000002505E001210020FFF77EFF681CC5B213
:10033000802DF7DB601CC4B2082CE3DB70BD10B568
:100340000246012000E050430B1EA1F10104E1B27E
:10035000F9D110BD2DE9F04107460E469046002523
:100360000024A8F12000C5B27F2F02DD0027B01CB9
:10037000C6B231463846FFF78FFF002408E004EB91
:100380000511AC4A505C0121FFF74EFF601CC4B25E
:10039000082CF4DB701CC1B23846FFF77DFF002447
:1003A00009E004EB05110831A24A505C0121FFF776
:1003B0003BFF601CC4B2082CF3DBBDE8F0812DE9E3
:1003C000FF5F074691461D460E9E4FF0000A00242F
:1003D00033E0281B401EC1B20A20FFF7B0FFB9FB73
:1003E000F0F00A21B0FBF1F201FB1208BAF1000FA4
:1003F00013D1681EA04210DDB8F1000F0BD1B34637
:1004000006EBDB71491001FB0471C8B2202201998F
:10041000FFF7A0FF0FE04FF0010AB34606EBDB71D8
:10042000491001FB0471C8B208F13001CAB2019948
:10043000FFF790FF00BF601CC4B2AC42C9DBBDE84F
:10044000FF9F2DE9F04104460F46154600260EE0B9
:10045000AA5D39462046FFF77DFF04F10800C4B2CB
:10046000782C02DD0024B81CC7B2701CC6B2A85D8F
:100470000028EDD1BDE8F08110B5FFF7A7FE0122FD
:1004800091036B4800F081FE01225103684800F09F
:100490007CFE0122D103664800F077FE01221103A1
:1004A000634800F072FE642001F0FBFA00224FF472
:1004B00080515F4800F069FE642001F0F2FA0122E9
:1004C00011035B4800F061FE0021AE20FFF7ACFE97
:1004D00000210220FFF7A8FE00211020FFF7A4FE54
:1004E00000214020FFF7A0FE00218120FFF79CFEA5
:1004F0000021CF20FFF798FE0021A120FFF794FEF6
:100500000021C820FFF790FE0021A620FFF78CFEF7
:100510000021A820FFF788FE00213F20FFF784FE7E
:100520000021D320FFF780FE00210846FFF77CFE64
:100530000021D520FFF778FE00218020FFF774FE10
:100540000021D920FFF770FE0021F120FFF76CFE9B
:100550000021DA20FFF768FE00211220FFF764FE79
:100560000021DB20FFF760FE00214020FFF75CFE4A
:1005700000212020FFF758FE00210220FFF754FE43
:1005800000218D20FFF750FE00211420FFF74CFEC4
:100590000021A420FFF748FE0021A620FFF744FE1B
:1005A0000021AF20FFF740FE0021AF20FFF73CFE07
:1005B000FFF7A5FE00210846FFF76EFE10BD2DE9EE
:1005C000F84F04460E4615469B464FF0000A4FF47E
:1005D0007A70B5FBF0FAB5FBF0F100FB1150642125
:1005E000B0FBF1F96420B5FBF0F100FB11500A21DA
:1005F000B0FBF1F80A20B5FBF0F100FB1157002029
:10060000E1060090080E012352463146FFF7D7FE5F
:100610000020611CC9060090080E01234A4631469D
:10062000FFF7CDFE0020A11CC9060090080E03E0D4
:10063000000C01401A220008012342463146FFF710
:10064000BEFE0020E11CC9060090080E01233A46B8
:100650003146FFF7B4FEBDE8F88F000001F008FA5C
:1006600001F076FAFFF796FDFFF706FF4FF47A7078
:1006700001F03BFA05A200210846FFF7E2FE03E085
:100680004FF47A7001F031FAFAE7000048656C6CBB
:100690006F7720576F726400704700BFFEE700BF9E
:1006A000FEE700BFFEE700BFFEE7704770477047F8
:1006B0000CB50020019000906C48006840F4803038
:1006C0006A49086000BF6948006800F40030009083
:1006D0000198401C0190009818B90198B0F5A06FDE
:1006E000F1D16248006800F4003010B101200090A0
:1006F00001E0002000900098012843D15C48006888
:1007000040F010005A4908600846006820F00300D5
:1007100008600846006840F00200086053484068DE
:10072000524948600846406848600846406840F4BE
:10073000806048600846406820F47C1048600846A5
:10074000406840F4E81048600846006840F0807057
:10075000086000BF4548006800F000700028F9D02C
:100760004248406820F0030040494860084640681D
:1007700040F00200486000BF3C48406800F00C00B8
:100780000828F9D10CBD10B5FFF792FF10BD10B5C8
:100790003648006840F00100344908600846406867
:1007A00034490840314948600846006832490840E9
:1007B0002E4908600846006820F48020086008463A
:1007C000406820F4FE0048604FF41F008860FFF787
:1007D000DAFF4FF000602949086010BD10B5002114
:1007E00000200022214B5B6803F00C0121B1042999
:1007F00006D0082928D107E0214B224C236027E0AE
:100800001F4B204C236023E0184B5B6803F47010EF
:10081000164B5B6803F48032022303EB904022B94D
:10082000194B4343174C23600DE0104B5B6803F4F6
:10083000003323B1144B4343124C236003E0104BAD
:100840004343104C236003E00D4B0E4C236000BF6C
:1008500000BF064B5B68C3F303130C4CE15C094B10
:100860001B68CB40074C236010BD00000010024005
:10087000002002400000FFF8FFFFF6FE08ED00E058
:1008800000127A000000002000093D000400002052
:100890000948804709480047FEE7FEE7FEE7FEE714
:1008A000FEE7FEE7FEE7FEE7FEE7FEE70448054950
:1008B000054A064B704700008F070008ED0000084E
:1008C000900000209006002090020020900200205E
:1008D00031490143314A1160704770B5002100234E
:1008E0000F22C47804B32D4C246804F4E064C4F5EA
:1008F000E064210AC1F10403CA40447804FA03F118
:100900008478144021430901254C0678A1550478C8
:1009100004F01F050124AC4005786D11AD0005F110
:10092000E025C5F8004109E0047804F01F05012422
:10093000AC401C4D0678761145F8264070BD1A4A29
:100940000A400243154B1B1F1A60704739B1134A06
:10095000121D12680243114B1B1D1A6006E00F4A5C
:10096000121D126882430D4B1B1D1A60704704282C
:1009700008D14FF0E021096941F004014FF0E02275
:10098000116107E04FF0E021096921F004014FF007
:10099000E0221161704700000000FA050CED00E054
:1009A00000E400E080E100E080FFFF1F014600203E
:1009B000FE4A106800F03800084310607047FB4999
:1009C000096821F00801F94A1160114609680143DC
:1009D00011607047F549096821F01001F34A116070
:1009E00011460968014311607047F148EF494860BA
:1009F000F04848607047EE48EC494860ED48486070
:100A00007047EA48006940F08000E8490861704793
:100A1000E648006940F08000E4490861704704201E
:100A2000E249C96801F0010109B101200EE0DF4986
:100A3000C96801F0040109B1022007E0DB49C96877
:100A400001F0100109B1032000E00420704700B557
:100A500002460423FFF7E3FF034603E0FFF7DFFF4F
:100A60000346521E012B01D1002AF7D102B90523FA
:100A7000184600BD30B5044604254FF43020FFF77A
:100A8000E6FF0546042D17D1C848006940F0020072
:100A9000C649086108464461006940F040000861A9
:100AA0004FF43020FFF7D3FF0546C048006941F6F8
:100AB000FD710840BD490861284630BD10B50424C9
:100AC0004FF43020FFF7C3FF0446042C16D1B7487B
:100AD000006940F00400B54908610846006940F02B
:100AE000400008614FF43020FFF7B1FF0446AF48E3
:100AF000006941F6FB710840AC490861204610BD11
:100B000000B502460423FFF78AFF034603E0FFF720
:100B100086FF0346521E012B01D1002AF7D102B9EC
:100B20000523184600BD10B504244FF43020FFF70C
:100B3000E7FF0446042C16D19C48006940F00400ED
:100B40009A4908610846006940F0400008614FF486
:100B50003020FFF7D5FF04469448006941F6FB7149
:100B6000084092490861204610BD00208F49C9699C
:100B700001F0020109B1012000E00020704730B50A
:100B8000A5250424FFF7F1FF00B100254FF4302024
:100B9000FFF75DFF0446042C3AD1854883498860FD
:100BA000844888600846006940F0200008610846D3
:100BB000006940F0400008614FF43020FFF747FF24
:100BC0000446042C1BD17948006941F6DF710840C6
:100BD000764908610846006940F0100008617648CF
:100BE0000580E002FFF733FF0446052C10D06F4864
:100BF000006941F6EF7108406C49086108E0052C76
:100C000006D06A48006941F6EF71084067490861FB
:100C1000204630BD78B506460C46042500200090DD
:100C2000E802FFF714FF0546042D24D15F48006950
:100C300040F001005D4908613480E802FFF707FFDA
:100C40000546042D10D1B01C0090200C009908809E
:100C5000E802FFF7FCFE05465448006941F6FE71C4
:100C600008405249086106E05048006941F6FE71AB
:100C700008404E490861284678BD70B504460D46C7
:100C80000426F002FFF7E3FE0646042E11D1474882
:100C9000006940F00100454908612580F002FFF736
:100CA000D6FE06464148006941F6FE7108403F49BC
:100CB0000861304670BD70B505460E460424E0025A
:100CC000FFF7C5FE0446042C17D139483749886020
:100CD000384888600846006940F0100008612E809E
:100CE000E002FFF7B4FE0446052C06D02F48006949
:100CF00041F6EF7108402D490861204670BD2DE98D
:100D0000F04304464FF6FF763746B046B146042519
:100D1000E443E6B2C4F30727C4F307484FEA146973
:100D2000E802FFF794FE0546042D49D120481F49EB
:100D30008860204888600846006940F0100008611B
:100D4000FF2E06D01C4808300680E802FFF77FFE21
:100D50000546042D08D1FF2F06D017480A3007801A
:100D6000E802FFF774FE0546042D0AD1B8F1FF0F23
:100D700007D011480C30A0F80080E802FFF767FEAA
:100D80000546042D0AD1B9F1FF0F07D00A480E30ED
:100D9000A0F80090E802FFF75AFE0546052D0FD097
:100DA0000248006941F6EF71084007E00020024068
:100DB00023016745AB89EFCD00F8FF1F6649086145
:100DC0002846BDE8F08330B5054604244FF43020B2
:100DD000FFF73DFE0446042C41D160485E4988601F
:100DE0005F4888600846006940F0200008610846B6
:100DF000006940F0400008614FF43020FFF727FE03
:100E00000446042C22D15448006941F6DF710840A1
:100E1000514908610846006940F0100008611DB1A1
:100E200000205049088002E0A5204E4908804FF478
:100E30003020FFF70CFE0446052C10D04648006910
:100E400041F6EF7108404449086108E0052C06D0DE
:100E50004148006941F6DF7108403F49086120467A
:100E600030BDF0B505460E46174604243B483A49C6
:100E700088603B488860E002FFF7E9FD0446042CE7
:100E800019D13548006940F010003349086147F036
:100E9000F800304328433349891C0880E002FFF7FB
:100EA000D6FD0446052C06D02B48006941F6EF71AB
:100EB0000840294908612046F0BD2748C0698008DC
:100EC00070472548006A704700202349096801F0EF
:100ED000200109B1012000E00020704729B11E4A1D
:100EE000126902431C4B1A6104E01B4A12698243D7
:100EF000194B1A61704701460020012908D1164A92
:100F0000D26902F001020AB1012008E0002006E0E7
:100F1000114AD2680A400AB1012000E0002070475F
:100F20000D49C860704704200B49C96801F00101F0
:100F300009B101200EE00849C96801F0040109B1B6
:100F4000022007E00449C96801F0100109B103203B
:100F500000E00420704700000020024023016745A4
:100F6000AB89EFCD00F8FF1F10B50446CC48844292
:100F700008D10121042000F02DFB0021042000F005
:100F800029FB46E0C748844208D10121082000F02F
:100F900021FB0021082000F01DFB3AE0C2488442FA
:100FA00008D10121102000F015FB0021102000F0D5
:100FB00011FB2EE0BD48844208D10121202000F021
:100FC00009FB0021202000F005FB22E0B848844204
:100FD00008D10121402000F0FDFA0021402000F05E
:100FE000F9FA16E0B348844208D10121802000F0CC
:100FF000F1FA0021802000F0EDFA0AE0AE488442C8
:1010000007D10121801500F0E5FA0021A01500F0BC
:10101000E1FA10BD10B50121084600F0DBFA00210D
:10102000012000F0D7FA10BD2DE9F041024600255D
:101030000026002000230024002791F803C00CF0B4
:101040000F0591F803C00CF0100CBCF1000F03D099
:1010500091F802C04CEA050591F800C0BCF1000F00
:1010600031D0146800202BE04FF0010C0CFA00F393
:10107000B1F800C00CEA03069E4220D183004FF075
:101080000F0C0CFA03F7BC4305FA03FC4CEA04040A
:1010900091F803C0BCF1280F06D14FF0010C0CFAF7
:1010A00000FCC2F814C00AE091F803C0BCF1480F7C
:1010B00005D14FF0010C0CFA00FCC2F810C0401C26
:1010C0000828D1D31460B1F800C0BCF1FF0F34DDA3
:1010D000546800202EE000F1080C4FF0010808FAD7
:1010E0000CF3B1F800C00CEA03069E4221D1830044
:1010F0004FF00F0C0CFA03F7BC4305FA03FC4CEA63
:10110000040491F803C0BCF1280F05D100F1080CCC
:1011100008FA0CF8C2F8148091F803C0BCF1480F2B
:1011200007D100F1080C4FF0010808FA0CF8C2F8DA
:101130001080401C0828CED35460BDE8F0814FF6E3
:10114000FF710180022181700421C1707047024645
:10115000002093680B400BB1012000E00020704795
:101160000146886880B2704702460020D3680B4071
:101170000BB1012000E0002070470146C86880B232
:10118000704701617047416170470AB1016100E039
:1011900041617047C16070474FF480320A438261F9
:1011A0008161826182698269704702460020434BF7
:1011B00018684FF68073184040EA021008433F4B0E
:1011C000186070473E49C8617047F0B50A46002371
:1011D00000240021002500F00046B6F1004F02D1A6
:1011E000364EF16901E0354E7168C0F3034583B2B4
:1011F00000F44016B6F5401F08D121F070612F4E63
:10120000766826F070662D4F7E6012E000F480163E
:10121000B6F5801F06D1032606FA05F4A14341F076
:10122000706106E0460D360103FA06F6B14341F05F
:10123000706122B1460D360103FA06F6314300F023
:101240000046B6F1004F02D11C4EF16101E01B4E89
:101250007160F0BD30B500228B071C0F0F2303FA1D
:1012600004F2164B08338C1053F824309343134C7C
:1012700008348D1044F8253023468C1053F8243060
:101280008C07240F00FA04F423430C4C08348D100F
:1012900044F8253030BD0A49DC3108607047000051
:1012A00000080140000C0140001001400014014002
:1012B00000180140001C01400020014000000140D6
:1012C00000002042DF48006840F00100DD4908606E
:1012D00008464068DC490840DA494860084600682A
:1012E000DA490840D74908600846006820F48020A1
:1012F00008600846406820F4FE0048604FF41F0074
:1013000088607047CF49096821F48031CD4A116067
:101310001146096821F480211160B0F5803F03D0A7
:10132000B0F5802F0ED106E0C649096841F480313E
:10133000C44A116007E0C349096841F4A021C14AC9
:10134000116000E000BF00BF704710B501460022E9
:10135000002300204A11012A02D1BA4C236806E07A
:10136000022A02D1B74C236A01E0B64C636A01F04D
:101370001F02012494401C400CB1012000E0002019
:1013800010BD38B5002000900024002500BF31209A
:10139000FFF7DBFF05460098401C00900098B0F571
:1013A000A06F01D0002DF2D03120FFF7CEFF08B1A1
:1013B000012400E00024204638BD01460020A14A57
:1013C000106820F0F80040EAC10010607047A049A2
:1013D00008607047024600209A4B586820F47C1041
:1013E00042EA01031843974B5860704798490866D2
:1013F000704701460020934A506820F003000843DC
:10140000506070478F48406800F00C0070470146FC
:1014100000208C4A506820F0F0000843506070476C
:1014200001460020874A506820F4E060084350607D
:10143000704701460020834A506820F4605040EA1B
:10144000C1005060704729B17E4A527A02437D4BF9
:101450005A7204E07B4A527A82437A4B5A7270473E
:101460007B49D8310860704701460020754A5068B2
:1014700020F440400843506070470021714A2032F8
:101480001170704A82F82010012802D004280AD175
:1014900004E001216B4A2032117005E00521694A00
:1014A0002032117000E000BF00BF7047694908603A
:1014B00070476449096A0143624A1162704765498D
:1014C00044390860704730B5002100220024002311
:1014D0005C4D6D6805F00C0121B1042905D0082987
:1014E00023D105E05C4D056022E05B4D05601FE007
:1014F000544D6D6805F47012524D6D6805F48034DA
:10150000022505EB92421CB9544D554305600BE092
:101510004C4D6D6805F400351DB1504D55430560C7
:1015200002E04D4D5543056002E04B4D056000BFA4
:1015300000BF444D6D6805F0F0010909484D6B5C32
:101540000568DD4045603F4D6D6805F4E061090ABE
:10155000434D6B5C4568DD4085603A4D6D6805F430
:101560006051C90A3E4D6B5C4568DD40C560354D34
:101570006D6805F44041890B3A4D6B5CC568B5FB5D
:10158000F3F5056130BD29B12E4A526902432D4B56
:101590005A6104E02B4A526982432A4B5A617047D0
:1015A00029B1284A92690243264B9A6104E0254AF0
:1015B00092698243234B9A61704729B1214AD269CB
:1015C0000243204BDA6104E01E4AD26982431D4B7C
:1015D000DA61704729B11B4AD2680243194BDA60BD
:1015E00004E0184AD2688243164BDA60704729B18A
:1015F000144A12690243134B1A6104E0114A12693A
:101600008243104B1A617047124940390860704795
:101610000F49C86470470B49C87170470948406A50
:1016200040F0807007494862704701460020054A33
:1016300092680A400AB1012000E000207047014989
:1016400088727047001002400000FFF8FFFFF6FEAE
:10165000000042428004424200127A0000093D002C
:10166000140000202400002010B50446FB488442EA
:1016700009D101218803FFF7ADFF00214FF480401D
:10168000FFF7A8FF32E0F648844209D1012148045F
:10169000FFF7ADFF00214FF40030FFF7A8FF25E072
:1016A000F048844209D101218804FFF7A0FF0021FE
:1016B0004FF48020FFF79BFF18E0EB48844209D1EC
:1016C0000121C804FFF793FF00214FF40020FFF72A
:1016D0008EFF0BE0E548844208D101210805FFF7A1
:1016E00086FF00214FF48010FFF781FF10BD2DE928
:1016F000F04786B005460E460024A24600BFA1462C
:101700000027B08900B100BF2F462C8A4CF6FF702D
:101710000440F08804432C82AC894EF6F310044058
:10172000B08831890843718908430443AC81AC8A8D
:101730004FF6FF400440B0890443AC8201A8FFF794
:10174000C2FEC648874202D1DDF810A001E0DDF8F4
:101750000CA0A88900F4004040B10AEBCA0000EBDD
:101760000A1031684900B0FBF1F807E00AEBCA0043
:1017700000EB0A1031688900B0FBF1F86420B8FB77
:10178000F0F004012009642101FB1089A88900F40C
:10179000004040B1322000EBC900B0FBF1F000F096
:1017A0000700044308E0322000EB09106421B0FB7D
:1017B000F1F000F00F0004432C8106B0BDE8F08783
:1017C0004FF41651016000218180C18001810C21FC
:1017D000418100218181704710B502460020108AA6
:1017E0004FF2FF0318400B884C8823438C88234317
:1017F000CC8823431843108210BD00210180418012
:101800008180C180704721B1828942F40052828177
:1018100004E082894DF6FF731A4082817047F0B56B
:101820000346002400260025002040F66A17B9422E
:1018300000D100BF1846C1F3421401F01F06012772
:1018400007FA06F5012C01D10C3004E0022C01D17D
:10185000103000E014301AB107682F43076002E02F
:101860000768AF430760F0BD1AB1838A0B438382D8
:1018700002E0838A8B4383827047028A4FF6F073BB
:101880001A400282028A0A430282704782894FF21A
:10189000FF731A40828182890A438281704721B195
:1018A000828942F00202828104E082894FF6FD7350
:1018B0001A4082817047028A4FF6DF731A40028213
:1018C000028A0A430282704721B1028A42F48042AE
:1018D000028204E0028A4BF6FF731A4002827047CC
:1018E000C1F308028280704701468888C0F308006F
:1018F0007047818941F0010181817047028BD2B22A
:101900000283028B42EA012202837047028B02F4B7
:101910007F420283028B0A430283704721B1828A8D
:1019200042F02002828204E0828A4FF6DF731A407E
:101930008282704721B1828A42F01002828204E0E2
:10194000828A4FF6EF731A408282704721B1828AF1
:1019500042F00802828204E0828A4FF6F7731A404E
:101960008282704721B1828942F40042828103E081
:101970008289C2F30E028281704721B1828A42F4C9
:101980000062828204E0828A4FF2FF731A408282F0
:101990007047828A4FF6FB731A408282828A0A431A
:1019A0008282704721B1828A42F00202828204E080
:1019B000828A4FF6FD731A408282704702460020E9
:1019C000B1F5007F00D100BF13880B400BB101209F
:1019D00000E00020704701F40072B2F5007F00D1F2
:1019E00000BFCA430280704770B50246002400233E
:1019F0000025002040F66A16B14200D100BFC1F3B5
:101A0000421501F01F03012606FA03F3012D02D14E
:101A10009689334006E0022D02D1168A334001E058
:101A2000968A33400C12012606FA04F416883440D4
:101A300013B10CB1012000E0002070BD10B50022F0
:101A4000002340F66A14A14200D100BF0A1201240B
:101A50009440A3B2DC43048010BD00000038014074
:101A60000044004000480040004C0040005000404E
:101A700010B56FF00400FEF77AFF2E4800682E497B
:101A8000B0FBF1F02D4908700846007800EB4001EA
:101A9000C1EBC0104FF6FF7101EAC0002849088071
:101AA00010BD0146254A12784A434FF0E0235A619F
:101AB00000229A611A46126942F001021A6100BFBF
:101AC0004FF0E022106900F001021AB100F48032F8
:101AD000002AF5D04FF0E022126922F001024FF007
:101AE000E0231A6100229A6170470146144A128865
:101AF0004A434FF0E0235A6100229A611A46126964
:101B000042F001021A6100BF4FF0E022106900F0BC
:101B100001021AB100F48032002AF5D04FF0E02221
:101B2000126922F001024FF0E0231A6100229A614B
:101B3000704700000000002000127A0028000020FA
:101B40002A00002010B54FF4A060FEF7C1FE10BDC2
:101B500010B5FFF7B7FB4FF48030FFF7D3FBFFF76B
:101B600010FC0446012C24D14FF4E0110004FFF7CF
:101B700031FC0020FFF74BFCA002FFF751FC0020D6
:101B8000FFF757FC0220FEF711FF1020FEF722FF9F
:101B90000120FFF72BFC00BF3920FFF7D6FB002800
:101BA000FAD00220FFF725FC00BFFFF72BFC082826
:101BB000FBD110BDA34A0A400243A34B1A607047F1
:101BC0000146072323EA010212029F4B1B1D1868DE
:101BD0004FF6FF0318409D4B184310439A4B1B1DB3
:101BE000186070472DE9F0410746884614461D46A7
:101BF0002846FFF7E5FFC5F1040007FA00F60F20BD
:101C0000284100EA0800064306F00F06E21704EB3D
:101C1000D2625211920002F1E022D2F80021214654
:101C2000E31704EBD3635B11A4EB431C012303FA1A
:101C30000CF31A432046E31704EBD3635B119B00BC
:101C400003F1E023C3F800218148005D40EA06105B
:101C50007F490855BDE8F08170B504460B46CE17A4
:101C600001EB9676C6F38700CE1701EB9676B61099
:101C7000A1EB8606B606350E764B9B6943F0010351
:101C8000744EB3614FEAB63353F820300F26AE409E
:101C9000B343714E46F82030334653F8203004FAEF
:101CA00005F61E436C4B43F820606C4B1B68012605
:101CB0008E403343694E336002F0010343B1674BFA
:101CC0000C331B6801268E403343644E0C36336060
:101CD00002F0020343B1614B08331E6801238B40BD
:101CE0001E435E4B08331E6070BD00B5002059498D
:101CF0000861C8601420486100208861C8610846F6
:101D0000006840F0010008600846406854490840F7
:101D10005049486008460068524908404D490860EB
:101D20000846006820F4802008600846406820F4D7
:101D3000FE0048600020886000214FF00060FFF73F
:101D400039FF00BD10B540480830006840F004007D
:101D50003D49083108603F48C06940F080503D4926
:101D6000C8614148406840F480703F494860084677
:101D7000006840F0040008600846006840F0020077
:101D80000860FEF701FA10BD3048001D2E49091DFC
:101D900008607047014649062E4A926942F00102E6
:101DA0002C4B9A612C4A083A526822F0E0622A4B86
:101DB000083B5A601A4652680A435A60704730B569
:101DC00004460025FFF791FF2248006840F4803068
:101DD0002049086000BF1F480068400C0028FAD066
:101DE0004FF480601B494860A01EC4B2084640689A
:101DF00040EA844048600846406840F480304860CB
:101E00001A48006840F0320018490860114800681C
:101E100040F080700F49086000BF0E480068400E17
:101E20000028FAD00B48406840F002000949486099
:101E300005E008484068C0F3870505F00305022D5A
:101E4000F7D130BD80FFFF1F08ED00E00000FA056C
:101E500000E400E0001002400800014000040140DE
:101E60000000FFF8FFFFF6FE007000400020024077
:101E700010B586B00446012144F20400FFF790FB40
:101E80004FF40070ADF8140003208DF816001820F0
:101E90008DF8170005A93548FFF7C6F84FF48060A4
:101EA000ADF8140004208DF8170005A92F48FFF79E
:101EB000BBF825208DF8000000208DF801008DF87A
:101EC000020001208DF803006846FEF706FD01942C
:101ED0000020ADF80800ADF80A00ADF80C00ADF830
:101EE00010000C20ADF80E0001A92148FFF7FFFB00
:101EF000012240F225511E48FFF791FC01211C48A8
:101F0000FFF781FC06B010BD10B540F2255118480E
:101F1000FFF76AFD40B31648FFF7E6FCC4B2072C92
:101F20001DD2DFE804F01C04080C10141800012076
:101F30001049087017E002200E49087013E00320D2
:101F40000C4908700FE004200A4908700BE00520D6
:101F50000849087007E006200649087003E00020E1
:101F60000449087000BF00BF10BD00000008014018
:101F7000003801402C0000207047704770477546BC
:101F800000F02CF8AE4605006946534620F00700E5
:101F9000854618B020B5FEF789FCBDE820404FF01B
:101FA00000064FF000074FF000084FF0000B21F043
:101FB0000701AC46ACE8C009ACE8C009ACE8C00910
:101FC000ACE8C0098D46704710B50446AFF30080F9
:101FD0002046BDE81040FEF7D0B80000004870472A
:101FE0003000002001491820ABBEFEE726000200A9
:101FF00070470000000000000000002F00000000FB
:102000000700070000147F147F1400242A7F2A127F
:10201000006264081323003649552250000005036E
:10202000000000001C224100000041221C0000149E
:10203000083E08140008083E0808000000A06000E0
:102040000008080808080000606000000020100870
:102050000402003E5149453E0000427F40000042DC
:1020600061514946002141454B31001814127F103F
:10207000002745454539003C4A494930000171096E
:10208000050300364949493600064949291E000022
:1020900036360000000056360000000814224100C9
:1020A00000141414141400004122140800020151F9
:1020B000090600324959513E007C1211127C007F02
:1020C00049494936003E41414122007F4141221C9D
:1020D000007F49494941007F09090901003E414902
:1020E000497A007F0808087F0000417F41000020F6
:1020F00040413F01007F08142241007F40404040A2
:10210000007F020C027F007F0408107F003E4141E7
:10211000413E007F09090906003E4151215E007FD2
:10212000091929460046494949310001017F010149
:10213000003F4040403F001F2040201F003F4038EC
:10214000403F00631408146300070870080700612B
:102150005149454300007F41410000552A552A5509
:10216000000041417F0000040201020400404040A1
:102170004040000001020400002054545478007FC5
:102180004844443800384444442000384444487F9C
:1021900000385454541800087E0901020018A4A401
:1021A000A47C007F080404780000447D40000040C7
:1021B00080847D00007F102844000000417F4000A3
:1021C000007C04180478007C080404780038444437
:1021D000443800FC242424180018242418FC007C13
:1021E0000804040800485454542000043F4440208C
:1021F000003C4040207C001C2040201C003C403023
:10220000403C004428102844001CA0A0A07C0044AE
:1022100064544C44141414141414000000000000FE
:1022200000000000000000000000000000F80000B6
:102230000000000000333000000000100C06100CFD
:102240000600000000000000000040C07840C07898
:102250004000043F04043F040400007088FC083080
:102260000000001820FF211E0000F008F000E01818
:10227000000000211C031E211E0000F008887000D1
:1022800000001E2123241927211010160E00000023
:1022900000000000000000000000000000E0180442
:1022A0000200000000071820400000020418E000AF
:1022B00000000040201807000000404080F08040EF
:1022C00040000202010F01020200000000F00000C5
:1022D00000000101011F01010100000000000000D9
:1022E000000080B07000000000000000000000004E
:1022F00000000001010101010101000000000000D7
:10230000000000303000000000000000000080608D
:102310001804006018060100000000E01008081012
:10232000E000000F102020100F00001010F8000037
:1023300000000020203F20200000007008080888CE
:10234000700000302824222130000030088888489E
:1023500030000018202020110E000000C02010F8CE
:10236000000000070424243F240000F8088888089F
:1023700008000019212020110E0000E010888818A4
:102380000000000F112020110E0000380808C83886
:1023900008000000003F0000000000708808088866
:1023A0007000001C222121221C0000E010080810EF
:1023B000E0000000312222110F00000000C0C00028
:1023C000000000000030300000000000008000002D
:1023D000000000008060000000000000804020102D
:1023E0000800000102040810200040404040404026
:1023F0004000040404040404040000081020408089
:1024000000000020100804020100007048080808BD
:10241000F0000000003036010000C030C828E8108D
:10242000E0000718272423140B000000C038E00048
:102430000000203C23020227382008F88888887092
:102440000000203F202020110E00C030080808089E
:102450003800071820202010080008F80808081085
:10246000E000203F202020100F0008F88888E808AE
:102470001000203F20202320180008F88888E80852
:102480001000203F200003000000C030080808387A
:10249000000007182020221E020008F8080000088B
:1024A000F808203F210101213F20000808F8080812
:1024B00000000020203F2020000000000808F8084D
:1024C0000800C08080807F00000008F888C02818BD
:1024D0000800203F20012638200008F808000000EE
:1024E0000000203F20202020300008F8F800F8F8F5
:1024F0000800203F003F003F200008F830C00008DF
:10250000F808203F200007183F00E01008080810D6
:10251000E0000F10202020100F0008F8080808081D
:10252000F000203F210101010000E0100808081020
:10253000E0000F18242438504F0008F88888888855
:102540007000203F2000030C30200070880808082D
:1025500038000038202121221C00180808F808083B
:1025600018000000203F2000000008F808000008C4
:10257000F808001F202020201F000878880000C8CD
:102580003808000007380E010000F80800F80008BD
:10259000F800033C0700073C0300081868808068C7
:1025A000180820302C03032C30200838C800C83805
:1025B00008000000203F2000000010080808C8386C
:1025C00008002038262120201800000000FE02020A
:1025D00002000000007F40404000000C30C00000BE
:1025E0000000000000010638C00000020202FE00E8
:1025F0000000004040407F00000000000402020292
:1026000004000000000000000000000000000000C6
:1026100000008080808080808080000202040000B2
:1026200000000000000000000000000080808080AA
:1026300000000019242222223F2008F80080800098
:102640000000003F112020110E000000008080805B
:102650000000000E11202020110000000080808862
:10266000F800000E112020103F20000080808080A4
:102670000000001F222222221300008080F08888A0
:1026800088180020203F20200000000080808080EB
:102690008000006B94949493600008F80080808020
:1026A0000000203F210000203F200080989800007B
:1026B00000000020203F20200000000000809898AB
:1026C000000000C08080807F000008F8000080804B
:1026D0008000203F24022D302000000808F8000070
:1026E00000000020203F202000008080808080802B
:1026F0008000203F20003F20003F808000808080BD
:102700000000203F210000203F20000080808080CA
:102710000000001F202020201F00808000808000FB
:10272000000080FFA12020110E00000000808080AA
:102730008000000E112020A0FF808080800080801B
:10274000800020203F212000010000008080808048
:1027500080000033242424241900008080E080803D
:1027600000000000001F202000008080000000808A
:102770008000001F202020103F20808080000080EB
:10278000808000010E3008060100808000800080FB
:1027900080800F300C030C300F00008080008080A0
:1027A00080000020312E0E312000808080000080CB
:1027B000808080818E70180601000080808080807B
:1027C00080000021302C2221300000000000807C9D
:1027D000020200000000003F404000000000FF0037
:1027E000000000000000FF0000000002027C8000EA
:1027F00000000040403F000000000006010102020E
:10280000040400000000000000000000F0101010A0
:1028100010FF10101010F000000000000000000079
:102820000000000000000000000000000F0404048D
:1028300004FF040404040F00000000000000000076
:102840000000000000000000000000FE0212929252
:1028500092F29292921202FE00000000000000002C
:102860000000000000000000000000FF4048484851
:10287000484F484A4C4840FF00000000000000005C
:102880000000000000000000000020242424FE239B
:10289000222020FF20222CA02000000000000000A9
:1028A00000000000000000000000000848847F02D3
:1028B000414020130C142241F800000000000000E9
:1028C0000000000000000000000080642C3424247C
:1028D000EC322222322E23A2600000000000000011
:1028E00000000000000000000000004121918987E5
:1028F0004D552525554D81808000000000000000C9
:1029000000000000000000000000008060F80740A8
:1029100020180F08C8080828180000000000000050
:1029200000000000000000000000010000FF001097
:102930000C0340807F00010618000000000000002A
:102940000000000000000000000000FC0404FC0087
:10295000C2BA828282FE82828000000000000000F3
:1029600000000000000000000000000F04040F2021
:1029700010080442817F00000000000000000000F9
:10298000000000000000000000000000AC2900086A
:10299000000000203000000028010008DC290008A9
:1029A00030000020600600004401000800A24A0434
:1029B00000000000000000000102030406070809EF
:1029C00000000000010203040102030406070809D5
:0C29D000020406080000000000000000E7
:04000005080000ED02
:00000001FF
